{
  "contractName": "FakeNewsApp",
  "abi": [
    {
      "inputs": [
        {
          "internalType": "uint256",
          "name": "",
          "type": "uint256"
        }
      ],
      "name": "DisplayArticleList",
      "outputs": [
        {
          "internalType": "uint256",
          "name": "id",
          "type": "uint256"
        },
        {
          "internalType": "string",
          "name": "content_URI",
          "type": "string"
        },
        {
          "internalType": "uint256",
          "name": "time_created",
          "type": "uint256"
        },
        {
          "internalType": "uint256",
          "name": "totalParticipants",
          "type": "uint256"
        },
        {
          "internalType": "enum FakeNewsApp.ArticleStatus",
          "name": "status",
          "type": "uint8"
        }
      ],
      "stateMutability": "view",
      "type": "function",
      "constant": true
    },
    {
      "inputs": [
        {
          "internalType": "uint256",
          "name": "",
          "type": "uint256"
        }
      ],
      "name": "totalArticles",
      "outputs": [
        {
          "internalType": "uint256",
          "name": "",
          "type": "uint256"
        }
      ],
      "stateMutability": "view",
      "type": "function",
      "constant": true
    },
    {
      "inputs": [
        {
          "internalType": "uint256",
          "name": "_id",
          "type": "uint256"
        },
        {
          "internalType": "string",
          "name": "_uri",
          "type": "string"
        }
      ],
      "name": "initializeArticle",
      "outputs": [],
      "stateMutability": "nonpayable",
      "type": "function"
    },
    {
      "inputs": [
        {
          "internalType": "uint256",
          "name": "_id",
          "type": "uint256"
        }
      ],
      "name": "participate",
      "outputs": [],
      "stateMutability": "nonpayable",
      "type": "function"
    },
    {
      "inputs": [
        {
          "internalType": "uint256",
          "name": "_id",
          "type": "uint256"
        },
        {
          "internalType": "uint256",
          "name": "stake",
          "type": "uint256"
        }
      ],
      "name": "voteFor",
      "outputs": [],
      "stateMutability": "payable",
      "type": "function",
      "payable": true
    },
    {
      "inputs": [
        {
          "internalType": "uint256",
          "name": "_id",
          "type": "uint256"
        },
        {
          "internalType": "uint256",
          "name": "stake",
          "type": "uint256"
        }
      ],
      "name": "voteAgainst",
      "outputs": [],
      "stateMutability": "payable",
      "type": "function",
      "payable": true
    },
    {
      "inputs": [
        {
          "internalType": "uint256",
          "name": "id",
          "type": "uint256"
        }
      ],
      "name": "calculateResult",
      "outputs": [],
      "stateMutability": "nonpayable",
      "type": "function"
    },
    {
      "inputs": [
        {
          "internalType": "uint256",
          "name": "_id",
          "type": "uint256"
        }
      ],
      "name": "distribute",
      "outputs": [],
      "stateMutability": "payable",
      "type": "function",
      "payable": true
    },
    {
      "inputs": [
        {
          "internalType": "uint256",
          "name": "id",
          "type": "uint256"
        }
      ],
      "name": "getTime",
      "outputs": [
        {
          "internalType": "uint256",
          "name": "",
          "type": "uint256"
        }
      ],
      "stateMutability": "view",
      "type": "function",
      "constant": true
    },
    {
      "inputs": [],
      "name": "getArticles",
      "outputs": [
        {
          "internalType": "uint256[]",
          "name": "",
          "type": "uint256[]"
        }
      ],
      "stateMutability": "view",
      "type": "function",
      "constant": true
    },
    {
      "inputs": [
        {
          "internalType": "uint256",
          "name": "id",
          "type": "uint256"
        }
      ],
      "name": "getParticipants",
      "outputs": [
        {
          "internalType": "address[]",
          "name": "",
          "type": "address[]"
        }
      ],
      "stateMutability": "view",
      "type": "function",
      "constant": true
    },
    {
      "inputs": [
        {
          "internalType": "uint256",
          "name": "id",
          "type": "uint256"
        },
        {
          "internalType": "address",
          "name": "_add",
          "type": "address"
        }
      ],
      "name": "getParticipantsStake",
      "outputs": [
        {
          "internalType": "uint256",
          "name": "",
          "type": "uint256"
        }
      ],
      "stateMutability": "view",
      "type": "function",
      "constant": true
    },
    {
      "inputs": [
        {
          "internalType": "uint256",
          "name": "id",
          "type": "uint256"
        },
        {
          "internalType": "address",
          "name": "_add",
          "type": "address"
        }
      ],
      "name": "getParticipantsVote",
      "outputs": [
        {
          "internalType": "bool",
          "name": "",
          "type": "bool"
        }
      ],
      "stateMutability": "view",
      "type": "function",
      "constant": true
    },
    {
      "inputs": [
        {
          "internalType": "uint256",
          "name": "id",
          "type": "uint256"
        }
      ],
      "name": "getVerdict",
      "outputs": [
        {
          "internalType": "bool",
          "name": "",
          "type": "bool"
        }
      ],
      "stateMutability": "view",
      "type": "function",
      "constant": true
    },
    {
      "inputs": [
        {
          "internalType": "uint256",
          "name": "id",
          "type": "uint256"
        }
      ],
      "name": "getCurrentStatus",
      "outputs": [
        {
          "internalType": "uint8",
          "name": "stat",
          "type": "uint8"
        }
      ],
      "stateMutability": "view",
      "type": "function",
      "constant": true
    },
    {
      "inputs": [],
      "name": "getContractBalance",
      "outputs": [
        {
          "internalType": "uint256",
          "name": "",
          "type": "uint256"
        }
      ],
      "stateMutability": "view",
      "type": "function",
      "constant": true
    }
  ],
  "bytecode": "0x608060405234801561001057600080fd5b50612c81806100206000396000f3fe6080604052600436106100f25760003560e01c8063845c93061161008a578063b83d3f6611610059578063b83d3f6614610328578063be1ed4a714610365578063c1e3bd3e146103a2578063edb0fd65146103df576100f2565b8063845c93061461027d5780638c51fedb146102a657806391c05b0b146102cf578063a0aa13c6146102eb576100f2565b80636529f44a116100c65780636529f44a146101ce5780636f9fb98a146101f9578063736278261461022457806376e16c9714610261576100f2565b8062c2b78e146100f75780631aee7fc81461011357806333dbdcd11461015457806333f3e74b14610191575b600080fd5b610111600480360381019061010c9190611f2e565b610408565b005b34801561011f57600080fd5b5061013a60048036038101906101359190611f6e565b6106df565b60405161014b9594939291906120b1565b60405180910390f35b34801561016057600080fd5b5061017b60048036038101906101769190612169565b6107aa565b60405161018891906121a9565b60405180910390f35b34801561019d57600080fd5b506101b860048036038101906101b39190611f6e565b610808565b6040516101c591906121df565b60405180910390f35b3480156101da57600080fd5b506101e36108bc565b6040516101f091906122b8565b60405180910390f35b34801561020557600080fd5b5061020e610914565b60405161021b91906121a9565b60405180910390f35b34801561023057600080fd5b5061024b60048036038101906102469190611f6e565b61091c565b60405161025891906121a9565b60405180910390f35b61027b60048036038101906102769190611f2e565b61093b565b005b34801561028957600080fd5b506102a4600480360381019061029f9190611f6e565b610c13565b005b3480156102b257600080fd5b506102cd60048036038101906102c89190611f6e565b610f10565b005b6102e960048036038101906102e49190611f6e565b611134565b005b3480156102f757600080fd5b50610312600480360381019061030d9190611f6e565b6118c9565b60405161031f91906122f6565b60405180910390f35b34801561033457600080fd5b5061034f600480360381019061034a9190612169565b611982565b60405161035c91906121df565b60405180910390f35b34801561037157600080fd5b5061038c60048036038101906103879190611f6e565b611a75565b60405161039991906121a9565b60405180910390f35b3480156103ae57600080fd5b506103c960048036038101906103c49190611f6e565b611a99565b6040516103d691906123cf565b60405180910390f35b3480156103eb57600080fd5b5061040660048036038101906104019190612526565b611b3c565b005b80341461041457600080fd5b600015156001600084815260200190815260200160002060003373ffffffffffffffffffffffffffffffffffffffff1673ffffffffffffffffffffffffffffffffffffffff16815260200190815260200160002060000160159054906101000a900460ff161515146104bb576040517f08c379a00000000000000000000000000000000000000000000000000000000081526004016104b2906125ce565b60405180910390fd5b600060028111156104cf576104ce61203a565b5b60008084815260200190815260200160002060040160009054906101000a900460ff1660028111156105045761050361203a565b5b14610544576040517f08c379a000000000000000000000000000000000000000000000000000000000815260040161053b9061263a565b60405180910390fd5b600180600084815260200190815260200160002060003373ffffffffffffffffffffffffffffffffffffffff1673ffffffffffffffffffffffffffffffffffffffff16815260200190815260200160002060000160146101000a81548160ff021916908315150217905550806001600084815260200190815260200160002060003373ffffffffffffffffffffffffffffffffffffffff1673ffffffffffffffffffffffffffffffffffffffff16815260200190815260200160002060010160008282546106129190612689565b92505081905550600180600084815260200190815260200160002060003373ffffffffffffffffffffffffffffffffffffffff1673ffffffffffffffffffffffffffffffffffffffff16815260200190815260200160002060000160156101000a81548160ff02191690831515021790555060008083815260200190815260200160002060050160008154809291906106aa906126bd565b91905055508060008084815260200190815260200160002060070160008282546106d49190612689565b925050819055505050565b600260205280600052604060002060009150905080600001549080600101805461070890612734565b80601f016020809104026020016040519081016040528092919081815260200182805461073490612734565b80156107815780601f1061075657610100808354040283529160200191610781565b820191906000526020600020905b81548152906001019060200180831161076457829003601f168201915b5050505050908060020154908060030154908060040160009054906101000a900460ff16905085565b60006001600084815260200190815260200160002060008373ffffffffffffffffffffffffffffffffffffffff1673ffffffffffffffffffffffffffffffffffffffff16815260200190815260200160002060010154905092915050565b600080600281111561081d5761081c61203a565b5b60008084815260200190815260200160002060040160009054906101000a900460ff1660028111156108525761085161203a565b5b03610892576040517f08c379a0000000000000000000000000000000000000000000000000000000008152600401610889906127b1565b60405180910390fd5b60008083815260200190815260200160002060040160019054906101000a900460ff169050919050565b6060600380548060200260200160405190810160405280929190818152602001828054801561090a57602002820191906000526020600020905b8154815260200190600101908083116108f6575b5050505050905090565b600047905090565b6000806000838152602001908152602001600020600201549050919050565b80341461094757600080fd5b600015156001600084815260200190815260200160002060003373ffffffffffffffffffffffffffffffffffffffff1673ffffffffffffffffffffffffffffffffffffffff16815260200190815260200160002060000160159054906101000a900460ff161515146109ee576040517f08c379a00000000000000000000000000000000000000000000000000000000081526004016109e5906125ce565b60405180910390fd5b60006002811115610a0257610a0161203a565b5b60008084815260200190815260200160002060040160009054906101000a900460ff166002811115610a3757610a3661203a565b5b14610a77576040517f08c379a0000000000000000000000000000000000000000000000000000000008152600401610a6e9061263a565b60405180910390fd5b60006001600084815260200190815260200160002060003373ffffffffffffffffffffffffffffffffffffffff1673ffffffffffffffffffffffffffffffffffffffff16815260200190815260200160002060000160146101000a81548160ff021916908315150217905550806001600084815260200190815260200160002060003373ffffffffffffffffffffffffffffffffffffffff1673ffffffffffffffffffffffffffffffffffffffff1681526020019081526020016000206001016000828254610b469190612689565b92505081905550600180600084815260200190815260200160002060003373ffffffffffffffffffffffffffffffffffffffff1673ffffffffffffffffffffffffffffffffffffffff16815260200190815260200160002060000160156101000a81548160ff0219169083151502179055506000808381526020019081526020016000206006016000815480929190610bde906126bd565b9190505550806000808481526020019081526020016000206008016000828254610c089190612689565b925050819055505050565b600015156001600083815260200190815260200160002060003373ffffffffffffffffffffffffffffffffffffffff1673ffffffffffffffffffffffffffffffffffffffff16815260200190815260200160002060000160159054906101000a900460ff16151514610cba576040517f08c379a0000000000000000000000000000000000000000000000000000000008152600401610cb1906125ce565b60405180910390fd5b60006002811115610cce57610ccd61203a565b5b60008083815260200190815260200160002060040160009054906101000a900460ff166002811115610d0357610d0261203a565b5b14610d43576040517f08c379a0000000000000000000000000000000000000000000000000000000008152600401610d3a9061263a565b60405180910390fd5b600060405180608001604052803373ffffffffffffffffffffffffffffffffffffffff16815260200160001515815260200160001515815260200160008152509050806001600084815260200190815260200160002060003373ffffffffffffffffffffffffffffffffffffffff1673ffffffffffffffffffffffffffffffffffffffff16815260200190815260200160002060008201518160000160006101000a81548173ffffffffffffffffffffffffffffffffffffffff021916908373ffffffffffffffffffffffffffffffffffffffff16021790555060208201518160000160146101000a81548160ff02191690831515021790555060408201518160000160156101000a81548160ff02191690831515021790555060608201518160010155905050600260008381526020019081526020016000206003016000815480929190610e91906126bd565b9190505550600080838152602001908152602001600020600301339080600181540180825580915050600190039060005260206000200160009091909190916101000a81548173ffffffffffffffffffffffffffffffffffffffff021916908373ffffffffffffffffffffffffffffffffffffffff1602179055505050565b60016002811115610f2457610f2361203a565b5b60008083815260200190815260200160002060040160009054906101000a900460ff166002811115610f5957610f5861203a565b5b03610f99576040517f08c379a0000000000000000000000000000000000000000000000000000000008152600401610f909061281d565b60405180910390fd5b600280811115610fac57610fab61203a565b5b60008083815260200190815260200160002060040160009054906101000a900460ff166002811115610fe157610fe061203a565b5b03611021576040517f08c379a000000000000000000000000000000000000000000000000000000000815260040161101890612889565b60405180910390fd5b60008082815260200190815260200160002060060154600080838152602001908152602001600020600501541061108557600160008083815260200190815260200160002060040160016101000a81548160ff0219169083151502179055506110b4565b600080600083815260200190815260200160002060040160016101000a81548160ff0219169083151502179055505b600160008083815260200190815260200160002060040160006101000a81548160ff021916908360028111156110ed576110ec61203a565b5b021790555060016002600083815260200190815260200160002060040160006101000a81548160ff0219169083600281111561112c5761112b61203a565b5b021790555050565b600160028111156111485761114761203a565b5b60008083815260200190815260200160002060040160009054906101000a900460ff16600281111561117d5761117c61203a565b5b146111bd576040517f08c379a00000000000000000000000000000000000000000000000000000000081526004016111b4906128f5565b60405180910390fd5b600080600083815260200190815260200160002060060154600080848152602001908152602001600020600501546111f59190612689565b9050600080600084815260200190815260200160002060040160019054906101000a900460ff169050600115158115150361153b5760005b828110156115355760011515600160008681526020019081526020016000206000806000888152602001908152602001600020600301848154811061127557611274612915565b5b9060005260206000200160009054906101000a900473ffffffffffffffffffffffffffffffffffffffff1673ffffffffffffffffffffffffffffffffffffffff1673ffffffffffffffffffffffffffffffffffffffff16815260200190815260200160002060000160149054906101000a900460ff1615150361152257600060016000868152602001908152602001600020600080600088815260200190815260200160002060030184815481106113305761132f612915565b5b9060005260206000200160009054906101000a900473ffffffffffffffffffffffffffffffffffffffff1673ffffffffffffffffffffffffffffffffffffffff1673ffffffffffffffffffffffffffffffffffffffff16815260200190815260200160002060010154905060008086815260200190815260200160002060030182815481106113c2576113c1612915565b5b9060005260206000200160009054906101000a900473ffffffffffffffffffffffffffffffffffffffff1673ffffffffffffffffffffffffffffffffffffffff166108fc611445600080898152602001908152602001600020600801548461142a9190612944565b6000808a815260200190815260200160002060070154611d69565b6001600089815260200190815260200160002060008060008b8152602001908152602001600020600301878154811061148157611480612915565b5b9060005260206000200160009054906101000a900473ffffffffffffffffffffffffffffffffffffffff1673ffffffffffffffffffffffffffffffffffffffff1673ffffffffffffffffffffffffffffffffffffffff168152602001908152602001600020600101546114f49190612689565b9081150290604051600060405180830381858888f1935050505015801561151f573d6000803e3d6000fd5b50505b808061152d906126bd565b91505061122d565b50611848565b60005b828110156118465760001515600160008681526020019081526020016000206000806000888152602001908152602001600020600301848154811061158657611585612915565b5b9060005260206000200160009054906101000a900473ffffffffffffffffffffffffffffffffffffffff1673ffffffffffffffffffffffffffffffffffffffff1673ffffffffffffffffffffffffffffffffffffffff16815260200190815260200160002060000160149054906101000a900460ff16151503611833576000600160008681526020019081526020016000206000806000888152602001908152602001600020600301848154811061164157611640612915565b5b9060005260206000200160009054906101000a900473ffffffffffffffffffffffffffffffffffffffff1673ffffffffffffffffffffffffffffffffffffffff1673ffffffffffffffffffffffffffffffffffffffff16815260200190815260200160002060010154905060008086815260200190815260200160002060030182815481106116d3576116d2612915565b5b9060005260206000200160009054906101000a900473ffffffffffffffffffffffffffffffffffffffff1673ffffffffffffffffffffffffffffffffffffffff166108fc611756600080898152602001908152602001600020600701548461173b9190612944565b6000808a815260200190815260200160002060080154611d69565b6001600089815260200190815260200160002060008060008b8152602001908152602001600020600301878154811061179257611791612915565b5b9060005260206000200160009054906101000a900473ffffffffffffffffffffffffffffffffffffffff1673ffffffffffffffffffffffffffffffffffffffff1673ffffffffffffffffffffffffffffffffffffffff168152602001908152602001600020600101546118059190612689565b9081150290604051600060405180830381858888f19350505050158015611830573d6000803e3d6000fd5b50505b808061183e906126bd565b91505061153e565b505b600260008085815260200190815260200160002060040160006101000a81548160ff021916908360028111156118815761188061203a565b5b0217905550600280600085815260200190815260200160002060040160006101000a81548160ff021916908360028111156118bf576118be61203a565b5b0217905550505050565b60008060028111156118de576118dd61203a565b5b60008084815260200190815260200160002060040160009054906101000a900460ff1660028111156119135761191261203a565b5b03611921576000905061197d565b600160028111156119355761193461203a565b5b60008084815260200190815260200160002060040160009054906101000a900460ff16600281111561196a5761196961203a565b5b03611978576001905061197d565b600290505b919050565b60008060028111156119975761199661203a565b5b60008085815260200190815260200160002060040160009054906101000a900460ff1660028111156119cc576119cb61203a565b5b03611a0c576040517f08c379a0000000000000000000000000000000000000000000000000000000008152600401611a03906127b1565b60405180910390fd5b6001600084815260200190815260200160002060008373ffffffffffffffffffffffffffffffffffffffff1673ffffffffffffffffffffffffffffffffffffffff16815260200190815260200160002060000160149054906101000a900460ff16905092915050565b60038181548110611a8557600080fd5b906000526020600020016000915090505481565b6060600080838152602001908152602001600020600301805480602002602001604051908101604052809291908181526020018280548015611b3057602002820191906000526020600020905b8160009054906101000a900473ffffffffffffffffffffffffffffffffffffffff1673ffffffffffffffffffffffffffffffffffffffff1681526020019060010190808311611ae6575b50505050509050919050565b611b44611d95565b611b4c611dfc565b8382600001818152505082826020018190525042826040018181525050600082608001906002811115611b8257611b8161203a565b5b90816002811115611b9657611b9561203a565b5b815250508381600001818152505082816020018190525042816040018181525050600081608001906002811115611bd057611bcf61203a565b5b90816002811115611be457611be361203a565b5b8152505081600080868152602001908152602001600020600082015181600001556020820151816001019081611c1a9190612b4a565b50604082015181600201556060820151816003019080519060200190611c41929190611e3d565b5060808201518160040160006101000a81548160ff02191690836002811115611c6d57611c6c61203a565b5b021790555060a08201518160040160016101000a81548160ff02191690831515021790555060c0820151816005015560e08201518160060155610100820151816007015561012082015181600801559050508060026000868152602001908152602001600020600082015181600001556020820151816001019081611cf29190612b4a565b50604082015181600201556060820151816003015560808201518160040160006101000a81548160ff02191690836002811115611d3257611d3161203a565b5b0217905550905050600384908060018154018082558091505060019003906000526020600020016000909190919091505550505050565b6000808203611d7b5760009050611d8f565b818381611d8b57611d8a612c1c565b5b0490505b92915050565b6040518061014001604052806000815260200160608152602001600081526020016060815260200160006002811115611dd157611dd061203a565b5b8152602001600015158152602001600081526020016000815260200160008152602001600081525090565b6040518060a001604052806000815260200160608152602001600081526020016000815260200160006002811115611e3757611e3661203a565b5b81525090565b828054828255906000526020600020908101928215611eb6579160200282015b82811115611eb55782518260006101000a81548173ffffffffffffffffffffffffffffffffffffffff021916908373ffffffffffffffffffffffffffffffffffffffff16021790555091602001919060010190611e5d565b5b509050611ec39190611ec7565b5090565b5b80821115611ee0576000816000905550600101611ec8565b5090565b6000604051905090565b600080fd5b600080fd5b6000819050919050565b611f0b81611ef8565b8114611f1657600080fd5b50565b600081359050611f2881611f02565b92915050565b60008060408385031215611f4557611f44611eee565b5b6000611f5385828601611f19565b9250506020611f6485828601611f19565b9150509250929050565b600060208284031215611f8457611f83611eee565b5b6000611f9284828501611f19565b91505092915050565b611fa481611ef8565b82525050565b600081519050919050565b600082825260208201905092915050565b60005b83811015611fe4578082015181840152602081019050611fc9565b60008484015250505050565b6000601f19601f8301169050919050565b600061200c82611faa565b6120168185611fb5565b9350612026818560208601611fc6565b61202f81611ff0565b840191505092915050565b7f4e487b7100000000000000000000000000000000000000000000000000000000600052602160045260246000fd5b6003811061207a5761207961203a565b5b50565b600081905061208b82612069565b919050565b600061209b8261207d565b9050919050565b6120ab81612090565b82525050565b600060a0820190506120c66000830188611f9b565b81810360208301526120d88187612001565b90506120e76040830186611f9b565b6120f46060830185611f9b565b61210160808301846120a2565b9695505050505050565b600073ffffffffffffffffffffffffffffffffffffffff82169050919050565b60006121368261210b565b9050919050565b6121468161212b565b811461215157600080fd5b50565b6000813590506121638161213d565b92915050565b600080604083850312156121805761217f611eee565b5b600061218e85828601611f19565b925050602061219f85828601612154565b9150509250929050565b60006020820190506121be6000830184611f9b565b92915050565b60008115159050919050565b6121d9816121c4565b82525050565b60006020820190506121f460008301846121d0565b92915050565b600081519050919050565b600082825260208201905092915050565b6000819050602082019050919050565b61222f81611ef8565b82525050565b60006122418383612226565b60208301905092915050565b6000602082019050919050565b6000612265826121fa565b61226f8185612205565b935061227a83612216565b8060005b838110156122ab5781516122928882612235565b975061229d8361224d565b92505060018101905061227e565b5085935050505092915050565b600060208201905081810360008301526122d2818461225a565b905092915050565b600060ff82169050919050565b6122f0816122da565b82525050565b600060208201905061230b60008301846122e7565b92915050565b600081519050919050565b600082825260208201905092915050565b6000819050602082019050919050565b6123468161212b565b82525050565b6000612358838361233d565b60208301905092915050565b6000602082019050919050565b600061237c82612311565b612386818561231c565b93506123918361232d565b8060005b838110156123c25781516123a9888261234c565b97506123b483612364565b925050600181019050612395565b5085935050505092915050565b600060208201905081810360008301526123e98184612371565b905092915050565b600080fd5b600080fd5b7f4e487b7100000000000000000000000000000000000000000000000000000000600052604160045260246000fd5b61243382611ff0565b810181811067ffffffffffffffff82111715612452576124516123fb565b5b80604052505050565b6000612465611ee4565b9050612471828261242a565b919050565b600067ffffffffffffffff821115612491576124906123fb565b5b61249a82611ff0565b9050602081019050919050565b82818337600083830152505050565b60006124c96124c484612476565b61245b565b9050828152602081018484840111156124e5576124e46123f6565b5b6124f08482856124a7565b509392505050565b600082601f83011261250d5761250c6123f1565b5b813561251d8482602086016124b6565b91505092915050565b6000806040838503121561253d5761253c611eee565b5b600061254b85828601611f19565b925050602083013567ffffffffffffffff81111561256c5761256b611ef3565b5b612578858286016124f8565b9150509250929050565b7f596f75206861766520616c726561647920766f74656400000000000000000000600082015250565b60006125b8601683611fb5565b91506125c382612582565b602082019050919050565b600060208201905081810360008301526125e7816125ab565b9050919050565b7f536f7272792053657373696f6e2068617320656e646564000000000000000000600082015250565b6000612624601783611fb5565b915061262f826125ee565b602082019050919050565b6000602082019050818103600083015261265381612617565b9050919050565b7f4e487b7100000000000000000000000000000000000000000000000000000000600052601160045260246000fd5b600061269482611ef8565b915061269f83611ef8565b92508282019050808211156126b7576126b661265a565b5b92915050565b60006126c882611ef8565b91507fffffffffffffffffffffffffffffffffffffffffffffffffffffffffffffffff82036126fa576126f961265a565b5b600182019050919050565b7f4e487b7100000000000000000000000000000000000000000000000000000000600052602260045260246000fd5b6000600282049050600182168061274c57607f821691505b60208210810361275f5761275e612705565b5b50919050565b7f53657373696f6e206e6f7420436f6d706c657465640000000000000000000000600082015250565b600061279b601583611fb5565b91506127a682612765565b602082019050919050565b600060208201905081810360008301526127ca8161278e565b9050919050565b7f526573756c7420616c72656164792043616c63756c6174656400000000000000600082015250565b6000612807601983611fb5565b9150612812826127d1565b602082019050919050565b60006020820190508181036000830152612836816127fa565b9050919050565b7f5374616b657320616c7265616479206469737472696275746564000000000000600082015250565b6000612873601a83611fb5565b915061287e8261283d565b602082019050919050565b600060208201905081810360008301526128a281612866565b9050919050565b7f536f72727920526573756c74206e6f742063616c63756c617465640000000000600082015250565b60006128df601b83611fb5565b91506128ea826128a9565b602082019050919050565b6000602082019050818103600083015261290e816128d2565b9050919050565b7f4e487b7100000000000000000000000000000000000000000000000000000000600052603260045260246000fd5b600061294f82611ef8565b915061295a83611ef8565b9250817fffffffffffffffffffffffffffffffffffffffffffffffffffffffffffffffff04831182151516156129935761299261265a565b5b828202905092915050565b60008190508160005260206000209050919050565b60006020601f8301049050919050565b600082821b905092915050565b600060088302612a007fffffffffffffffffffffffffffffffffffffffffffffffffffffffffffffffff826129c3565b612a0a86836129c3565b95508019841693508086168417925050509392505050565b6000819050919050565b6000612a47612a42612a3d84611ef8565b612a22565b611ef8565b9050919050565b6000819050919050565b612a6183612a2c565b612a75612a6d82612a4e565b8484546129d0565b825550505050565b600090565b612a8a612a7d565b612a95818484612a58565b505050565b5b81811015612ab957612aae600082612a82565b600181019050612a9b565b5050565b601f821115612afe57612acf8161299e565b612ad8846129b3565b81016020851015612ae7578190505b612afb612af3856129b3565b830182612a9a565b50505b505050565b600082821c905092915050565b6000612b2160001984600802612b03565b1980831691505092915050565b6000612b3a8383612b10565b9150826002028217905092915050565b612b5382611faa565b67ffffffffffffffff811115612b6c57612b6b6123fb565b5b612b768254612734565b612b81828285612abd565b600060209050601f831160018114612bb45760008415612ba2578287015190505b612bac8582612b2e565b865550612c14565b601f198416612bc28661299e565b60005b82811015612bea57848901518255600182019150602085019450602081019050612bc5565b86831015612c075784890151612c03601f891682612b10565b8355505b6001600288020188555050505b505050505050565b7f4e487b7100000000000000000000000000000000000000000000000000000000600052601260045260246000fdfea26469706673582212202d83ef86b519fa863a705a747a2d211bedf1a1aacf64af1e7f03a107c306041c64736f6c63430008100033",
  "immutableReferences": {},
  "source": " //SPDX-License-Identifier: GPL-3.0\r\npragma solidity  ^ 0.8.0 ;\r\ncontract FakeNewsApp{\r\n    struct article{\r\n\r\n        //public\r\n        uint256 id;\r\n        string content_URI;\r\n        uint256 time_created;\r\n        address[]participants;\r\n        ArticleStatus status;\r\n\r\n        //private\r\n        bool  verdict;\r\n        uint256 _for;\r\n        uint256 against;\r\n        uint256 forStake;\r\n        uint256 againstStake;\r\n   \r\n\r\n    }\r\n    struct DisplayArticle{\r\n         uint256 id;\r\n        string content_URI;\r\n        uint256 time_created;\r\n        uint256 totalParticipants;\r\n        ArticleStatus status;\r\n\r\n    }\r\n    struct participant{\r\n        address  id;\r\n        bool vote;\r\n        bool hasVoted;\r\n        uint256 staked;\r\n\r\n    }\r\n     enum ArticleStatus{\r\n         CreationCompleted,\r\n         ResultCalculated,\r\n         DistributionCompleted\r\n     }\r\n   mapping (uint=>article) private articleList;\r\n   mapping(uint256=>mapping(address=>participant)) private Participants;\r\n\r\n   mapping (uint=>DisplayArticle) public DisplayArticleList;\r\n   uint256 [] public totalArticles;\r\n\r\n   //mapping(address=>uint256) public voteStore;\r\n   \r\n\r\n    //From openZepplin\r\n       function tryDiv(uint256 a, uint256 b) internal pure returns (uint256) {\r\n        unchecked {\r\n            if (b == 0) return (0);\r\n            return ( a / b);\r\n        }\r\n    }\r\n\r\n    function initializeArticle(uint256 _id,string memory _uri) public{\r\n        article  memory newArticle; \r\n        DisplayArticle memory newDisplayArticle ;     \r\n\r\n        newArticle.id = _id;\r\n        newArticle.content_URI = _uri;\r\n        newArticle.time_created = block.timestamp;\r\n        newArticle.status =ArticleStatus.CreationCompleted; \r\n\r\n        newDisplayArticle.id = _id;\r\n        newDisplayArticle.content_URI = _uri;\r\n        newDisplayArticle.time_created = block.timestamp;\r\n        newDisplayArticle.status =ArticleStatus.CreationCompleted; \r\n\r\n        articleList[_id] = newArticle;\r\n        DisplayArticleList[_id] =  newDisplayArticle;\r\n        totalArticles.push(_id);\r\n\r\n    }\r\n    function participate(uint256 _id)public{\r\n        require( Participants[_id][msg.sender].hasVoted == false,\"You have already voted\");\r\n        require(articleList[_id].status == ArticleStatus.CreationCompleted,\"Sorry Session has ended\");\r\n        participant memory newPart = participant(msg.sender,false,false,0);\r\n         Participants[_id][msg.sender] = newPart;\r\n             DisplayArticleList[_id].totalParticipants++;\r\n                articleList[_id].participants.push(msg.sender);\r\n    }\r\n    function voteFor(uint256 _id,uint256 stake) payable public{\r\n       require(msg.value==stake);\r\n       require( Participants[_id][msg.sender].hasVoted == false,\"You have already voted\");\r\n       require(articleList[_id].status == ArticleStatus.CreationCompleted,\"Sorry Session has ended\");\r\n       Participants[_id][msg.sender].vote = true;\r\n       Participants[_id][msg.sender].staked +=stake; \r\n       Participants[_id][msg.sender].hasVoted = true ; \r\n\r\n    \r\n       articleList[_id]._for++ ;\r\n       articleList[_id].forStake += stake;\r\n\r\n      // DisplayArticleList[_id].participants.push(msg.sender);\r\n      \r\n\r\n    }\r\n    function voteAgainst(uint256 _id,uint256 stake) payable public{\r\n       require(msg.value==stake);\r\n       require( Participants[_id][msg.sender].hasVoted == false,\"You have already voted\");\r\n       require(articleList[_id].status == ArticleStatus.CreationCompleted,\"Sorry Session has ended\");\r\n\r\n       Participants[_id][msg.sender].vote = false;\r\n       Participants[_id][msg.sender].staked +=stake; \r\n       Participants[_id][msg.sender].hasVoted = true ;\r\n\r\n       articleList[_id].against++ ;\r\n       articleList[_id].againstStake += stake;\r\n\r\n    }\r\n\r\n    function calculateResult(uint256 id)external {\r\n       require(articleList[id].status != ArticleStatus.ResultCalculated,\"Result already Calculated\");\r\n        require(articleList[id].status != ArticleStatus.DistributionCompleted,\"Stakes already distributed\");\r\n        if(articleList[id]._for>=articleList[id].against){\r\n            articleList[id].verdict = true;\r\n        }\r\n        else{\r\n            articleList[id].verdict = false;\r\n        }\r\n        articleList[id].status = ArticleStatus.ResultCalculated;\r\n        DisplayArticleList[id].status = ArticleStatus.ResultCalculated;\r\n\r\n\r\n    }\r\n    function distribute(uint256 _id)external payable{\r\n        require(articleList[_id].status == ArticleStatus.ResultCalculated,\"Sorry Result not calculated\");\r\n\r\n        uint256 total = articleList[_id]._for + articleList[_id].against;\r\n        bool _verdict = articleList[_id].verdict;\r\n        \r\n        if(_verdict == true) {\r\n        for(uint i=0;i<total;i++){\r\n       \r\n            if( Participants[_id][articleList[_id].participants[i]].vote == true){\r\n                 uint256 stake =  Participants[_id][articleList[_id].participants[i]].staked;\r\n                 payable( articleList[_id].participants[i]).transfer( Participants[_id][articleList[_id].participants[i]].staked+tryDiv(stake*articleList[_id].againstStake, articleList[_id].forStake));\r\n            }\r\n        }\r\n        }\r\n        else{\r\n            for(uint i=0;i<total;i++){\r\n              if( Participants[_id][articleList[_id].participants[i]].vote == false){\r\n                uint256 stake =  Participants[_id][articleList[_id].participants[i]].staked;\r\n                 payable( articleList[_id].participants[i]).transfer( Participants[_id][articleList[_id].participants[i]].staked+tryDiv(stake*articleList[_id].forStake, articleList[_id].againstStake));\r\n                // Participants[_id][articleList[_id].participants[i]].staked=0;\r\n            }\r\n        \r\n          }\r\n       }\r\n        articleList[_id].status = ArticleStatus.DistributionCompleted;\r\n        DisplayArticleList[_id].status = ArticleStatus.DistributionCompleted;\r\n\r\n     \r\n\r\n    }\r\n\r\n//VIEW FUNCTIONS\r\n    function getTime(uint256 id)external view returns(uint256){\r\n    return articleList[id].time_created;\r\n    }\r\n    function getArticles() external view returns (uint256 [] memory ){\r\n        return totalArticles;\r\n    }\r\n     function getParticipants (uint256 id) external  view  returns ( address [] memory ) {\r\n        return articleList[id].participants;\r\n    }\r\n    function getParticipantsStake(uint256 id,address _add) external view returns(uint256){\r\n        return(Participants[id][_add].staked);\r\n    }\r\n        function getParticipantsVote (uint256 id,address _add) external view returns(bool){\r\n        require(articleList[id].status!=ArticleStatus.CreationCompleted,\"Session not Completed\");\r\n        return (Participants[id][_add].vote);\r\n    }\r\n        function getVerdict(uint256 id) external view returns (bool){\r\n             require( articleList[id].status != ArticleStatus.CreationCompleted,\"Session not Completed\");\r\n             return(articleList[id].verdict);\r\n    }\r\n        function getCurrentStatus(uint256 id) external view returns (uint8 stat){\r\n           if(articleList[id].status == ArticleStatus.CreationCompleted){\r\n               stat =0;\r\n               return stat;\r\n           }\r\n           if(articleList[id].status == ArticleStatus.ResultCalculated){\r\n               stat = 1;\r\n               return stat;\r\n           }\r\n           else{\r\n               stat = 2;\r\n               return stat;\r\n           }\r\n    }\r\n       function getContractBalance() public view returns (uint256) { //view amount of ETH the contract contains\r\n        return address(this).balance;\r\n    }\r\n\r\n}",
  "sourcePath": "D:\\OpenSource\\BlockChain\\Projects\\project-BlockNews\\contracts\\FakeNewsApp.sol",
  "compiler": {
    "name": "solc",
    "version": "0.8.16+commit.07a7930e.Emscripten.clang"
  },
  "schemaVersion": "3.4.8",
  "updatedAt": "2022-08-22T17:15:06.748Z",
  "networkType": "ethereum",
  "devdoc": {
    "kind": "dev",
    "methods": {},
    "version": 1
  },
  "userdoc": {
    "kind": "user",
    "methods": {},
    "version": 1
  }
}