{
  "contractName": "Resolver",
  "abi": [
    {
      "inputs": [
        {
          "internalType": "address",
          "name": "contract_add",
          "type": "address"
        }
      ],
      "name": "checker",
      "outputs": [
        {
          "internalType": "bool",
          "name": "canExec",
          "type": "bool"
        },
        {
          "internalType": "bytes",
          "name": "execPayload",
          "type": "bytes"
        }
      ],
      "stateMutability": "view",
      "type": "function",
      "constant": true
    },
    {
      "inputs": [
        {
          "internalType": "address",
          "name": "contract_add",
          "type": "address"
        }
      ],
      "name": "distributor",
      "outputs": [
        {
          "internalType": "bool",
          "name": "canExec",
          "type": "bool"
        },
        {
          "internalType": "bytes",
          "name": "execPayload",
          "type": "bytes"
        }
      ],
      "stateMutability": "view",
      "type": "function",
      "constant": true
    }
  ],
  "bytecode": "0x608060405234801561001057600080fd5b50610d42806100206000396000f3fe608060405234801561001057600080fd5b50600436106100365760003560e01c8063016c683c1461003b578063e074839e1461006c575b600080fd5b61005560048036038101906100509190610881565b61009d565b604051610063929190610959565b60405180910390f35b61008660048036038101906100819190610881565b610413565b604051610094929190610959565b60405180910390f35b6000606060008373ffffffffffffffffffffffffffffffffffffffff16636529f44a6040518163ffffffff1660e01b8152600401600060405180830381865afa1580156100ee573d6000803e3d6000fd5b505050506040513d6000823e3d601f19601f820116820180604052508101906101179190610b07565b905060005b815181101561040b576103848573ffffffffffffffffffffffffffffffffffffffff16637362782684848151811061015757610156610b50565b5b60200260200101516040518263ffffffff1660e01b815260040161017b9190610b8e565b602060405180830381865afa158015610198573d6000803e3d6000fd5b505050506040513d601f19601f820116820180604052508101906101bc9190610ba9565b426101c79190610c05565b1015801561026b575060008573ffffffffffffffffffffffffffffffffffffffff1663a0aa13c684848151811061020157610200610b50565b5b60200260200101516040518263ffffffff1660e01b81526004016102259190610b8e565b602060405180830381865afa158015610242573d6000803e3d6000fd5b505050506040513d601f19601f820116820180604052508101906102669190610c72565b60ff16145b1561030d57638c51fedb60e01b82828151811061028b5761028a610b50565b5b60200260200101516040516024016102a39190610b8e565b604051602081830303815290604052907bffffffffffffffffffffffffffffffffffffffffffffffffffffffff19166020820180517bffffffffffffffffffffffffffffffffffffffffffffffffffffffff8381831617835250505050925060019350505061040e565b6103848573ffffffffffffffffffffffffffffffffffffffff16637362782684848151811061033f5761033e610b50565b5b60200260200101516040518263ffffffff1660e01b81526004016103639190610b8e565b602060405180830381865afa158015610380573d6000803e3d6000fd5b505050506040513d601f19601f820116820180604052508101906103a49190610ba9565b426103af9190610c05565b10156103f85760006040518060400160405280601281526020017f53657373696f6e206973206f6e676f696e67000000000000000000000000000081525093509350505061040e565b808061040390610c9f565b91505061011c565b50505b915091565b6000606060008373ffffffffffffffffffffffffffffffffffffffff16636529f44a6040518163ffffffff1660e01b8152600401600060405180830381865afa158015610464573d6000803e3d6000fd5b505050506040513d6000823e3d601f19601f8201168201806040525081019061048d9190610b07565b905060005b81518110156108075761012c8573ffffffffffffffffffffffffffffffffffffffff1663736278268484815181106104cd576104cc610b50565b5b60200260200101516040518263ffffffff1660e01b81526004016104f19190610b8e565b602060405180830381865afa15801561050e573d6000803e3d6000fd5b505050506040513d601f19601f820116820180604052508101906105329190610ba9565b4261053d9190610c05565b101580156105e1575060018573ffffffffffffffffffffffffffffffffffffffff1663a0aa13c684848151811061057757610576610b50565b5b60200260200101516040518263ffffffff1660e01b815260040161059b9190610b8e565b602060405180830381865afa1580156105b8573d6000803e3d6000fd5b505050506040513d601f19601f820116820180604052508101906105dc9190610c72565b60ff16145b15610683576391c05b0b60e01b82828151811061060157610600610b50565b5b60200260200101516040516024016106199190610b8e565b604051602081830303815290604052907bffffffffffffffffffffffffffffffffffffffffffffffffffffffff19166020820180517bffffffffffffffffffffffffffffffffffffffffffffffffffffffff8381831617835250505050925060019350505061080a565b61012c8573ffffffffffffffffffffffffffffffffffffffff1663736278268484815181106106b5576106b4610b50565b5b60200260200101516040518263ffffffff1660e01b81526004016106d99190610b8e565b602060405180830381865afa1580156106f6573d6000803e3d6000fd5b505050506040513d601f19601f8201168201806040525081019061071a9190610ba9565b426107259190610c05565b1080156107c9575060018573ffffffffffffffffffffffffffffffffffffffff1663a0aa13c684848151811061075e5761075d610b50565b5b60200260200101516040518263ffffffff1660e01b81526004016107829190610b8e565b602060405180830381865afa15801561079f573d6000803e3d6000fd5b505050506040513d601f19601f820116820180604052508101906107c39190610c72565b60ff1614155b156107f4576000604051806060016040528060258152602001610ce86025913993509350505061080a565b80806107ff90610c9f565b915050610492565b50505b915091565b6000604051905090565b600080fd5b600080fd5b600073ffffffffffffffffffffffffffffffffffffffff82169050919050565b600061084e82610823565b9050919050565b61085e81610843565b811461086957600080fd5b50565b60008135905061087b81610855565b92915050565b60006020828403121561089757610896610819565b5b60006108a58482850161086c565b91505092915050565b60008115159050919050565b6108c3816108ae565b82525050565b600081519050919050565b600082825260208201905092915050565b60005b838110156109035780820151818401526020810190506108e8565b60008484015250505050565b6000601f19601f8301169050919050565b600061092b826108c9565b61093581856108d4565b93506109458185602086016108e5565b61094e8161090f565b840191505092915050565b600060408201905061096e60008301856108ba565b81810360208301526109808184610920565b90509392505050565b600080fd5b7f4e487b7100000000000000000000000000000000000000000000000000000000600052604160045260246000fd5b6109c68261090f565b810181811067ffffffffffffffff821117156109e5576109e461098e565b5b80604052505050565b60006109f861080f565b9050610a0482826109bd565b919050565b600067ffffffffffffffff821115610a2457610a2361098e565b5b602082029050602081019050919050565b600080fd5b6000819050919050565b610a4d81610a3a565b8114610a5857600080fd5b50565b600081519050610a6a81610a44565b92915050565b6000610a83610a7e84610a09565b6109ee565b90508083825260208201905060208402830185811115610aa657610aa5610a35565b5b835b81811015610acf5780610abb8882610a5b565b845260208401935050602081019050610aa8565b5050509392505050565b600082601f830112610aee57610aed610989565b5b8151610afe848260208601610a70565b91505092915050565b600060208284031215610b1d57610b1c610819565b5b600082015167ffffffffffffffff811115610b3b57610b3a61081e565b5b610b4784828501610ad9565b91505092915050565b7f4e487b7100000000000000000000000000000000000000000000000000000000600052603260045260246000fd5b610b8881610a3a565b82525050565b6000602082019050610ba36000830184610b7f565b92915050565b600060208284031215610bbf57610bbe610819565b5b6000610bcd84828501610a5b565b91505092915050565b7f4e487b7100000000000000000000000000000000000000000000000000000000600052601160045260246000fd5b6000610c1082610a3a565b9150610c1b83610a3a565b9250828203905081811115610c3357610c32610bd6565b5b92915050565b600060ff82169050919050565b610c4f81610c39565b8114610c5a57600080fd5b50565b600081519050610c6c81610c46565b92915050565b600060208284031215610c8857610c87610819565b5b6000610c9684828501610c5d565b91505092915050565b6000610caa82610a3a565b91507fffffffffffffffffffffffffffffffffffffffffffffffffffffffffffffffff8203610cdc57610cdb610bd6565b5b60018201905091905056fe53657373696f6e206973206f6e676f696e672f5374616b6573206469737472696275746564a26469706673582212202458291054cf6b3017060158768b58db49586384e47f02c047eefcaca5cd07ef64736f6c63430008100033",
  "immutableReferences": {},
  "source": " //SPDX-License-Identifier: GPL-3.0\r\npragma solidity  ^ 0.8.0 ;\r\ninterface IFakeNewsAPP {\r\n\r\n    function calculateResult(uint256 id) external;\r\n    function distribute(uint256 _id)external payable;\r\n\r\n\r\n     function getArticles() external  view returns (uint256 [] memory );\r\n     function getTime(uint256 id) external  view returns (uint256 );\r\n     function getParticipants (uint256 id) external  view  returns ( address [] memory );\r\n      function getVerdict(uint256 id) external view returns (bool);\r\n     function getCurrentStatus(uint256 id) external view returns (uint8 stat);\r\n}\r\ncontract Resolver  {\r\n\r\n\r\n    function checker(address contract_add)\r\n        external\r\n        view\r\n        returns (bool canExec, bytes memory execPayload)\r\n       // returns(uint256 []  memory arr)\r\n    {\r\n        \r\n       uint256[] memory ans =  IFakeNewsAPP(contract_add ).getArticles();\r\n       \r\n       for(uint256 i=0;i<ans.length;i++){\r\n           if(block.timestamp-IFakeNewsAPP(contract_add).getTime(ans[i])>=900 && IFakeNewsAPP(contract_add).getCurrentStatus(ans[i])==0  ){\r\n                execPayload = abi.encodeWithSelector(\r\n                IFakeNewsAPP.calculateResult.selector,\r\n                uint256(ans[i])\r\n            );\r\n            return (true, execPayload);\r\n           }\r\n         if(block.timestamp-IFakeNewsAPP(contract_add).getTime(ans[i])<900){\r\n               return(false,bytes(\"Session is ongoing\"));\r\n           }\r\n\r\n       }\r\n  \r\n}\r\n\r\n     function distributor(address contract_add)\r\n        external\r\n        view\r\n        returns (bool canExec, bytes memory execPayload)\r\n       // returns(uint256 []  memory arr)\r\n    {\r\n        \r\n       uint256[] memory ans =  IFakeNewsAPP(contract_add ).getArticles();\r\n       \r\n       for(uint256 i=0;i<ans.length;i++){\r\n           if(block.timestamp-IFakeNewsAPP(contract_add).getTime(ans[i])>=300 && IFakeNewsAPP(contract_add).getCurrentStatus(ans[i])==1){\r\n                execPayload = abi.encodeWithSelector(\r\n                IFakeNewsAPP.distribute.selector,\r\n                uint256(ans[i])\r\n            );\r\n            return (true, execPayload);\r\n           }\r\n           if(block.timestamp-IFakeNewsAPP(contract_add).getTime(ans[i])<300 && IFakeNewsAPP(contract_add).getCurrentStatus(ans[i])!=1){\r\n               return(false,bytes(\"Session is ongoing/Stakes distributed\"));\r\n           }\r\n\r\n       }\r\n       \r\n\r\n\r\n    }\r\n\r\n}\r\n",
  "sourcePath": "D:\\OpenSource\\BlockChain\\Projects\\project-BlockNews\\contracts\\Resolver.sol",
  "compiler": {
    "name": "solc",
    "version": "0.8.16+commit.07a7930e.Emscripten.clang"
  },
  "schemaVersion": "3.4.8",
  "updatedAt": "2022-08-22T17:15:19.102Z",
  "networkType": "ethereum",
  "devdoc": {
    "kind": "dev",
    "methods": {},
    "version": 1
  },
  "userdoc": {
    "kind": "user",
    "methods": {},
    "version": 1
  }
}